:020000040000FA
:0400000033EF00F0EA
:100008005682FACF01F0FBCF02F0D9CF03F0DACF56
:1000180004F0A3AA12EF00F014EF00F029EF00F0AB
:10002800A4AA19EF00F01BEF00F029EF00F08D945F
:1000380002D829EF00F00500FA6E3E50FD6E3F50E1
:10004800FE6EF850FF6EFA50120004C0DAFF03C0CB
:10005800D9FF02C0FBFF01C0FAFF56921100F7EF6B
:1000680001F00F681068000E0D6E64EF00F00D507F
:100078000524D96E000E0620DA6EDF50096E09508D
:100088000F1A080E0E6E0FA04CEF00F04EEF00F0A6
:1000980057EF00F0D89010320F32010E0F1AA00E51
:1000A800101A5AEF00F0D89010320F320E060E5088
:1000B800D8A461EF00F063EF00F047EF00F00D2ADD
:1000C80007500D5CD8A06BEF00F06DEF00F03BEF30
:1000D80000F00804D8A473EF00F075EF00F096EF75
:1000E80000F00F500A6E096A0FC00BF010C00CF038
:1000F8000CC00BF00C6A0B5009100F6E0A50106EF2
:1001080020EE06F00550D9260650DA221050DF6E90
:1001180020EE07F00550D9260650DA220FC0DFFF7F
:10012800BDEF00F00850D8A49CEF00F09EEF00F05F
:10013800BDEF00F00F500A6E096A0FC00BF010C037
:100148000CF00CC00BF00C6A0B5009100F6E0A5023
:10015800106E20EE09F00550D9260650DA2210500C
:10016800DF6E20EE0AF00550D9260650DA220FC0BD
:10017800DFFF120011C0D9FF12C0DAFF010EDF6ED7
:1001880020EE01F01150D9261250DA22100EDF6E3F
:1001980020EE02F01150D9261250DA221450DF6EE8
:1001A80020EE03F01150D9261250DA2213C0DFFFD7
:1001B80020EE04F01150D9261250DA221650DF6EC4
:1001C80020EE05F01150D9261250DA2215C0DFFFB3
:1001D80020EE06F01150D9261250DA2217C0DFFFA0
:1001E80020EE07F01150D9261250DA2218C0DFFF8E
:1001F80020EE08F01150D9261250DA2219C0DFFF7C
:1002080011C005F012C006F0090E076E000E086E48
:1002180035EC00F0000E1A6E1A501124D96E000E3B
:100228001220DA6EDF505DEC02F01A2A0A0E1A6408
:1002380020EF01F022EF01F010EF01F01200600E44
:100248004324D96EDA6A000EDA22000EDF6E71A43A
:1002580030EF01F032EF01F047EF01F0600E432478
:10026800D96EDA6A000EDA220001DF8202D847EF7F
:1002780001F00500FA6E3C50FD6E3D50FE6EF850E0
:10028800FF6EFA50120071A24CEF01F04EEF01F030
:1002980063EF01F0600E4324D96EDA6A000EDA22A9
:1002A8000001DF8402D863EF01F00500FA6E3A50CE
:1002B800FD6E3B50FE6EF850FF6EFA501200600E55
:1002C8004324D96EDA6A000EDA22DF50D8B46FEF11
:1002D80001F071EF01F080EF01F002D87EEF01F03C
:1002E8000500FA6E3850FD6E3950FE6EF850FF6EFC
:1002F800FA50120082EF01F03AEC02F0120071ECB1
:1003080002F020EE44F010EE1DF0090EDBCFE3FF03
:10031800E806FCE220EE4EF010EE27F0070EDBCFE9
:10032800E3FFE806FCE2F28EF28CF28C8D84E00E9C
:10033800116E000E126E000E146E0E0E136E000E6D
:10034800166E010E156E020E176E000E186E020E56
:10035800196EBEEC00F0000E2F6E520E1C6E2B0EA6
:100368001B6E000EE82EFED71B2EFCD71C2EFAD7CC
:1003780000D02F2A090E2F64C4EF01F0C6EF01F058
:10038800B1EF01F0AFEF01F033EF00F0A39A460EA2
:10039800056E020E066E7AEC02F0080E706E900E74
:1003A800716E240E726E8A0E756E000E766E2E0EAB
:1003B800056E050E066E84EC02F0220E056E050E23
:1003C800066E7FEC02F0280E056E050E066E89ECAF
:1003D80002F0000E406E000E436E000E426E000EDC
:1003E800416EA38A1200D00EF66E040EF76E000E50
:1003F800F86E00EE44F010EE12F00900F5CFEEFFB3
:10040800E550E150FAE100EE60F08B0EEE6AE80686
:10041800FDE100EE30F0140EEE6AE806FDE15690BC
:100428005692000EF86E000183EF01F0000E8D6EFB
:10043800000E8C6E000E896E000E8A6E000E8B6E9A
:10044800030E966E926893689468BF0E956E3F0E81
:100458000F013B6FFC0E3A6F3F0E396F070E3C6F72
:100468002F0E386F000E616EF18E1200A00E43241D
:10047800D96EDA6A000EDA2274CFDFFF432A3F0E04
:10048800436449EF02F04BEF02F04DEF02F0000E2B
:10049800436E412A1200300ED36E040ED26E000E47
:1004A8009B6ED2AE5AEF02F05CEF02F055EF02F00D
:1004B8001200056EA4A863EF02F065EF02F05EEF8C
:1004C80002F005C073FF1200AA75553221022514E7
:1004D8005658010300000001840A8EEC02F01AEC61
:1004E80002F04FEC02F0CAEC01F0120005C03EF039
:1004F80006C03FF0120005C03AF006C03BF01200FB
:1005080005C03CF006C03DF0120005C038F006C03A
:1005180039F01200D08EA58A1200719871881200E5
:080528003AEC02F0120012008F
:020000040020DA
:08000000FFFFFFFFFFFFFFFF00
:020000040030CA
:0E000000FF331F3CFFBF85FF0FC00FE00F4016
:00000001FF
